:020000040800F2
:103400008041002001350008BD910008E9790008DD
:103410009D9100081D5B000873AF000800000000CC
:1034200000000000000000000000000089A2000869
:103430007D6E000800000000EB9400087DAA0008E3
:103440001B3500081B3500081B3500081B3500081C
:103450001B3500081B350008057200087172000852
:10346000E17200081B3500081B3500081B350008F9
:103470001B3500081B3500081B3500081B350008EC
:103480001B3500081B3500081B3500081B350008DC
:1034900029AF00081B3500081B3500082173000800
:1034A0001B3500081B3500081B3500081B350008BC
:1034B0001B3500089DAB00081B3500081B350008B4
:1034C0001B3500081B3500081B3500081B3500089C
:1034D0001B350008D9AC00081B3500081B35000857
:1034E0001B350008999500081B350008DFF80CD043
:1034F00001F010FD0048004789BE0008804100200F
:103500000648804706480047FEE7FEE7FEE7FEE77D
:10351000FEE7FEE7FEE7FEE7FEE7FEE791AA00080A
:10352000ED340008027801238B401A430270704783
:10353000027801238B409A4302707047027801237E
:103540008B405A400270704770B503460C461546D2
:103550000021002208E0985C284110F0010F01D002
:10356000481C81B2501C82B2A242F4DB084601EB37
:10357000D0767610B1EB460601D1012070BD002057
:10358000FCE770B504460D460026002109E0685CA2
:10359000184110F0010F02D02180701C86B2481C27
:1035A00081B29142F3DB012E01D1012070BD0020D8
:1035B000FCE7014601F00F00FA4A105C02EB111221
:1035C0001278104400F001007047014600230022E9
:1035D00007E011F0010F01D0581CC3B24910501C74
:1035E000C2B2082AF5DB012B01D10120704700206F
:1035F000FCE702468A4202DD501A80B27047881A00
:1036000080B2FBE710B504460A460023082A0ADB0D
:10361000012104E0501A34F810000344491C082921
:10362000F8D9DB0809E0002103E034F81100034475
:10363000491C9142F9D3B3FBF2F398B210BDF0B537
:10364000034600251B11012B04D1D74EB6F898086C
:1036500031460EE0022B04D1D44EB6F8E8033146D1
:1036600007E0032B04D1D24EB6F87008314600E0D3
:10367000F0BD064600EBD677C7F34F0500220DE0FC
:1036800031F81240861A761E31F8166021F8126061
:10369000861A761E21F81640561CB2B2AA42EFDBFB
:1036A00000BFE5E72DE9F14F8EB000200D900B90A3
:1036B0000A90099008908046824600260490059062
:1036C00006900790002400270E9800110E900E9887
:1036D000012806D1B448B0F898080390DFF8C892E2
:1036E00017E00E98022806D1B048B0F8E80303901E
:1036F000DFF8B8920DE00E98032806D1AC48B0F878
:1037000070080390DFF8A89203E003200FB0BDE833
:10371000F08F40F22231A74801F025F94FF0000860
:10372000D2E10D9800283DD139F8180028B139F8B8
:10373000180047F23051884200DDC1E139F8181015
:103740003046FFF756FF05466420684339F81810E5
:10375000B0FBF1F539F818601E2D02D90020089051
:10376000ADE10898401C80B2089008980828F7DB63
:1037700001200D90002009900A9000278D49A1F8A2
:1037800020030024002507E039F8150005F00701A3
:1037900004AA22F811006D1C08F101008542F3D340
:1037A00084B28CE139F8180002900298074408218D
:1037B00004A8FFF727FF0646642007FB00F191FBF2
:1037C000F6F01FFA80FA64210298414391FBF6F566
:1037D000142D03D3212D01D201200990BAF1210F1C
:1037E0000BDBBAF1460F08DA142D01D20120099043
:1037F0000A98401CC0B20A9061E1BAF1460F7DDB25
:10380000BAF1820F7ADA00200C9008F1010039F841
:1038100010000190BAF15A0F02DBBAF16E0F1ADBF9
:1038200008F101000399884215DA019898B16421E2
:103830000198484390FBF6F021280CDA01983844AF
:10384000484390FBF6F06E2805DA01200C900B98A7
:10385000401CC0B20B900C980028A2D10B9858B90C
:103860000A98012808D164210298484390FBF6F099
:10387000142801DA00200A90BE422ADDF51B6420DC
:103880006843B0FBF6F023280DD22046E21704EB84
:103890005272D210A4EBC20204AB23F81270601C67
:1038A00084B200273CE0C5EBC5004FEAD00B07EB24
:1038B0000B012046E21704EB5272D210A4EBC202B5
:1038C00004AB23F81210601C84B207EB0B00371A0C
:1038D00026E0BD1B64206843B0FBF6F023280ED21F
:1038E0002046E21704EB5272D210A4EBC20204ABE2
:1038F00023F81270601C84B2002711E062E04FEAE6
:10390000D50BA7EB0B012046E21704EB5272D21045
:10391000A4EBC20204AB23F81210601C84B25F4611
:103920000998012813D12348B0F82003B0F5487F47
:103930000CDA02211F48B0F82023B0F82003401C05
:103940001C4BA3F820031846815436E0C0E00A98C7
:10395000002813DD1748B0F82003B0F5487F0CDAD3
:1039600001211448B0F82023B0F82003401C114B6B
:10397000A3F82003184681541FE0A9E00D48B0F8D1
:103980002003B0F5487F17DA00210A48B0F8202359
:10399000B0F82003401C074BA3F8200318468154BD
:1039A0000BE00000F3E6000836230020D02B0020B7
:1039B000BA2F00202C3800208AE000200B900A90BB
:1039C00009907CE0BAF1820F79DB4FF0000B2BE01D
:1039D0000BF1010BBBF10A0F00D927E02046E117DC
:1039E00004EB5171C910A4EBC10104AA22F81160C3
:1039F000601C84B2BF1B082104A8FFF703FE064623
:103A0000FE48B0F82003B0F5487F0CDA0221FB48ED
:103A1000B0F82023B0F82003401CF84BA3F8200393
:103A20001846815400E001E0B742D1DA00BF00201F
:103A300009900A900B906420784390FBF6F5282DAE
:103A400016D2601EC11700EB5171C910A0EBC10165
:103A500004AA32F8111039448AB2C11700EB51712F
:103A6000C910A0EBC10104AB23F81120002726E008
:103A7000462D21D32046E21704EB5272D210A4EB5C
:103A8000C20204AB23F81270601C84B2DB48B0F8A9
:103A90002003B0F5487F0CDA0221D848B0F8202383
:103AA000B0F82003401CD54BA3F8200318468154DE
:103AB00000E00DE0002702E0012009900A9000BF1D
:103AC00008F101001FFA80F803988045FFF629AE3F
:103AD00000BF0D9830B940F22231C84800F043FFD2
:103AE000002013E6012011E62DE9F04F8DB00546C8
:103AF0004FF00008152D05D0162D03D0172D01D03D
:103B0000182D01D1BE4F0FE0252D01D1BD4F0BE087
:103B1000352D03D0362D01D0372D01D1BA4F03E01A
:103B200002200DB0BDE8F08F6F21384600F01BFF7A
:103B3000B248B0F8200308B90220F2E700200A904A
:103B400009900890079002908146F5E300200590C7
:103B50008246019000908346DBE1B9F1000F01D16C
:103B60005C4606E0A548B0F820130BF10100081AE6
:103B700084B2A248065D022E00D1002605980028D6
:103B800073D105F00F0007284BD1BAF1070F47D2C8
:103B9000DFE80AF004080F171E252C00012E00D1C3
:103BA000B2463DE016B94FF0020A01E04FF0000ABC
:103BB00036E0012E02D14FF0030A01E04FF0000A77
:103BC0002EE016B94FF0040A01E04FF0000A27E09A
:103BD00016B94FF0050A01E04FF0000A20E016B9CF
:103BE0004FF0060A01E04FF0000A19E0012E14D14F
:103BF000012005904FF000086F21844800F0B3FECB
:103C00006F21834800F0AFFE4520814908700120F4
:103C100081F86E007D4981F86E004FF0000A00BF08
:103C200073E105F00F0005283DD1BAF1050F39D237
:103C3000DFE80AF003070F161F00012E00D1B2467D
:103C400030E0012E02D14FF0020A01E04FF0000AED
:103C500028E016B94FF0030A01E04FF0000A21E016
:103C6000012E03D14FF0040A02E0DAE04FF0000A1F
:103C700018E0A6B9012005904FF000086F216348B5
:103C800000F071FE6F21624800F06DFE0B2060496C
:103C90000870012081F86E005C4981F86E004FF0D9
:103CA000000A00BF31E105F00F00062850D1BAF13B
:103CB000060F4CD2DFE80AF0030A112F363D012E21
:103CC00001D1B24601E04FF0000A40E016B94FF0D2
:103CD000020A01E04FF0000A39E06F214B4800F082
:103CE00042FE6F214A4800F03EFE012E07D1162DFC
:103CF00005D10520464908704FF0030A0AE03EB995
:103D0000362D05D10120424908704FF0030A01E029
:103D10004FF0000A1BE016B94FF0040A01E04FF023
:103D2000000A14E016B94FF0050A01E04FF0000A4E
:103D30000DE04EB9012005904FF00008344981F89C
:103D40006E00324981F86E004FF0000A00BFDCE0DF
:103D500005F00F000828A5D1BAF1080F60D2DFE8FE
:103D60000AF00408101820283038012E00D1B2467D
:103D700056E0012E02D14FF0020A01E04FF0000A96
:103D80004EE0012E02D14FF0030A01E04FF0000A8D
:103D900046E0012E02D14FF0040A01E04FF0000A84
:103DA0003EE0012E02D14FF0050A01E04FF0000A7B
:103DB00036E0012E02D14FF0060A01E04FF0000A72
:103DC0002EE0012E02D14FF0070A01E04FF0000A69
:103DD00026E0012E21D1012005904FF000086F212F
:103DE0000A4800F0C0FD6F21094800F0BCFDFF202B
:103DF00007490870012081F86E000BE02C38002084
:103E00002C3C00209B3C00200A3D00204E3B002023
:103E1000BD3B0020FC4981F86E004FF0000A00BF56
:103E200073E0FA48005D40B9F94991F86E10F84A1C
:103E300088184146FFF77CFB1CE0F448005D012830
:103E400008D1F34991F86E10F14A88184146FFF7FE
:103E500069FB0FE0EE4991F86E10ED4A8818414673
:103E6000FFF766FBE84991F86E10E74A881841466B
:103E7000FFF758FB08F1010000F0FF0805F00F0004
:103E8000072806D198FBF0F100FB118000F0FF0835
:103E900023E005F00F00052806D198FBF0F100FBA8
:103EA000118000F0FF0818E005F00F00062806D189
:103EB00098FBF0F100FB118000F0FF080DE005F029
:103EC0000F00082809D140464FEAE87108EB51710C
:103ED000C910A8EBC10101F0FF08B8F1000F14D11F
:103EE000CB4890F86E006D280EDAC94890F86E0045
:103EF000401CC74981F86E00C34890F86E00401C12
:103F0000C14981F86E0000E009E00BF101001FFAE1
:103F100080FBBE48B0F8200358453FF71EAE00BFF7
:103F200005F00F050598002877D0B9F1000F24D1CE
:103F3000072D06D1B64890F86E00C0EBC0000A907D
:103F40003EE0052D06D1B24890F86E0000EB8000EF
:103F50000A9035E0062D07D1AD4890F86E0000EBD1
:103F6000400040000A902BE0082D29D1A84890F885
:103F70006E0000EB80000A9022E0072D06D1A448D5
:103F800090F86E00C0EBC000099019E0052D06D135
:103F90009F4890F86E0000EB8000099010E0062D1D
:103FA00007D19B4890F86E0000EB4000400009905C
:103FB00006E0082D04D1964890F86E00C0000990E4
:103FC000002006900C9083E0012429E0072D01D108
:103FD0007F260AE0062D01D13F2606E0052D01D1FE
:103FE0001F2602E0082D00D1FF26082D04D08848A6
:103FF000005D30401F2806D0082D0FD18448005D99
:104000003040FF280AD1A01C814981F86E007E490A
:1040100081F86E000120069007E0F4E1601C84B294
:104020007B4890F86E00A042D0DC00BF0698C8BB69
:10403000BDF83000B0BB062D45D000243DE07449EA
:10404000085DFFF7B6FA70BB6F49085DFFF7BDFA70
:1040500048B36F48005D6C49095D48406C4908559C
:10406000072D01D17F2606E0052D01D11F2602E094
:10407000082D00D1FF26082D04D06548005D304092
:104080001F2805D0082D0FD16148005DFF280BD1F6
:104090000098401CC0B2009000205B4908550120E8
:1040A00001900FE00FE006E05948005D5649095DB8
:1040B000484057490855601C84B2554890F86E0036
:1040C000A042BCDC00BFBDF83000401C80B20C90A8
:1040D000069820B9BDF830000228FFF675AF0698A3
:1040E00001287DD1062D7BD000BF01200390002048
:1040F0000490002439E04649085DFFF75AFA30BBC6
:10410000B9F1000F05D10898082807DA00200890B7
:1041100004E00798082801DA0020079000200390A7
:104120003949085DFFF751FAE8B10098401CC0B268
:1041300000903748005D3449095D484034490855CE
:104140000020314908550120049001900BE0B9F19D
:10415000000F04D10898401C80B2089003E0079833
:10416000401C80B20790601C84B2294890F86E0011
:10417000A042C0DC072D01D1062606E0052D01D1A5
:10418000042602E0082D00D1072600242AE0E2B22E
:104190001F4890F86E10FFF7D7F9F8B90020039088
:1041A000E3B2194890F86E2001460CA8FFF7E9F930
:1041B000A0B10098401CC0B20090E1B2144ABDF812
:1041C0003030D018FFF7BAF9E1B20F4ABDF83030FD
:1041D000D018FFF7ADF9012004900190601C00E0B9
:1041E00047E184B2B442D2DB049800287FF47DAF6B
:1041F0000398E0BB00BF0120039000200490834699
:104200000B90002447E000004E3B00202C3800209B
:10421000BD3B0020F749085DFFF7CBF940BB00200C
:1042200003900BF101001FFA80FB0B94072D01D1C5
:10423000062606E0052D01D1042602E0082D00D156
:10424000072600200C901FE0BDF83000C2B2E948FC
:1042500090F86E10FFF778F988B90098401CC0B24A
:104260000090BDF83020D1B2E24A101901E05CE0C4
:104270000FE0FFF763F901200490019008E0BDF81A
:104280003000401C80B20C90BDF83000B042DBDB47
:1042900000BF601C84B2D74890F86E00A042B9DC21
:1042A000BBF1010F19D10498B8B9072D01D1062629
:1042B00006E0052D01D1042602E0082D00D10726D5
:1042C0000098401CC0B20090CA4A0B995018314661
:1042D000FFF734F9012004900190072D01D1062643
:1042E00006E0052D01D1042602E0082D00D10726A5
:1042F00000200C9010E0BDF83000C2B2BD4890F82C
:104300006E10FFF721F910B90020039008E0BDF806
:104310003000401C80B20C90BDF83000B042EADBA7
:1043200000BF049800287FF466AF039800286AD085
:10433000052D02D1032101E0F6E001210098814220
:1043400061DBAC4890F86E0003285CDB002006902F
:10435000012420E0052D06D1A648005D00F00F00E5
:10436000A449085500E01CE00198012811D1A1489A
:10437000005D09280DDD9F48005D0E2809D09D488D
:10438000005D0D2805D09B48005D0C2801D0012060
:104390000690601C84B2974890F86E00801EA04280
:1043A000D8DC00BF069870BBB9F1000F2CD10024F7
:1043B0001DE0072D07D18F48005D00F03F00203041
:1043C000611C785411E0052D07D18A48005D00F08A
:1043D0000F003030611C785407E0082D05D1854866
:1043E000005D00F07F01601C3954601C84B281487C
:1043F00090F86E00A042DCDC7E4890F86E00401C15
:1044000087F86E0032E08BE07A4890F86E0097F8FB
:104410006E1088422ADD00241DE0072D07D1754863
:10442000005D00F03F002030611C785411E0052D44
:1044300007D17048005D00F00F003030611C7854E7
:1044400007E0082D05D16B48005D00F07F01601C7E
:104450003954601C84B2674890F86E00A042DCDCDE
:10446000644890F86E00401C87F86E0001200290AE
:1044700056E00698012853D1062D51D1062600207A
:1044800003900C9010E0BDF83000C2B2594890F88B
:104490006E10FFF759F810B90120039008E0BDF83D
:1044A0003000401C80B20C90BDF83000B042EADB16
:1044B00000BF0398A0BBB9F1000F14D1002406E09F
:1044C0004C48005D2030C1B2601C395484B2494868
:1044D00090F86E00A042F3DC464890F86E00401C55
:1044E00087F86E001AE0434890F86E0097F86E1057
:1044F000884213DD002406E03E48005D2030C1B252
:10450000601C395484B23B4890F86E00A042F3DC42
:10451000384890F86E00401C87F86E000120029029
:1045200009F1010000F0FF09B9F1020FFFF60EAB2F
:104530000298012808D197F86E00042802DA0220B8
:10454000FFF7EFBA0020FBE70898082802DB0A987B
:10455000642805DA0798082804DB0998642801DB39
:104560000120EDE70220EBE710B540F69A01224862
:1045700000F0F9F940F2EA31204800F0F4F940F691
:1045800072011F4800F0EFF940F222311D4800F09F
:10459000EAF96F211C4800F0E6F96F211B4800F092
:1045A000E2F96F211A4800F0DEF910BD2DE9F04163
:1045B00006460027002515E0012D02D13046FFF701
:1045C0003EF83046FFF76EF850B13046FFF78CFAF0
:1045D000044614B90020BDE8F081012C00D1012768
:1045E000681CC5B2022DE7DB012F01D10120F2E7E3
:1045F0000220F0E7BD3B002036230020D02B002016
:10460000BA2F00202C3800202C3C00209B3C00209E
:104610000A3D00200020AF490870704710B5FFF731
:10462000A3FFFFF7F7FF10BD30B520B101280FD071
:10463000022827D119E0A84BB3F89848B3F8983866
:104640005B1C9DB2A44BA3F8985823F8141019E0F2
:10465000A24BB3F8E843B3F8E8335B1C9F4DA5F8D1
:10466000E8332B4623F814100CE09D4BB3F8704848
:10467000B3F870385B1C9DB2994BA3F8705823F8BF
:10468000141000BF00BF30BD704710B59248B0F89D
:104690009808142802DD0120FFF788FF8F48B0F842
:1046A000E803142802DD0220FFF780FF8C48B0F8F1
:1046B0007008142802DD0320FFF778FF10BD10B545
:1046C000884890F86E00022813DD87A006F004FDEC
:1046D000022405E08348015D85A006F0FDFC641C12
:1046E000804890F86E00801EA042F3DC81A006F0A6
:1046F000F3FC814890F86E00022813DD7FA006F0DD
:10470000EBFC022405E07C48015D79A006F0E4FCA6
:10471000641C794890F86E00801EA042F3DC75A0FE
:1047200006F0DAFC774890F86E00022813DD76A0D8
:1047300006F0D2FC022405E07248015D6CA006F090
:10474000CBFC641C6F4890F86E00801EA042F3DC26
:1047500068A006F0C1FC002010BD01205D49087072
:1047600070472DE9F04107460E461546002416B95C
:10477000E01EBDE8F0812946304600F0F4F827B18C
:10478000012F3AD0022F7DD164E05348B0F8980849
:10479000142830DD1720FFF709FF04464CB11CB187
:1047A0001820FFF703FF04461CB11620FFF7FEFE9A
:1047B0000446FCB92B204B490870084690F86E005F
:1047C000801E81F86E00084690F86E00401B03D5ED
:1047D000084690F86E0000E0284602464149491C10
:1047E000304600F0A7F83F4890F86E00801C3D4925
:1047F00081F86E0000E0022468E03848B0F8E80371
:10480000142825DD2520FFF7D1FE0446FCB92C2015
:1048100039490870084690F86E00801E81F86E00D5
:10482000084690F86E00401B03D5084690F86E00CD
:1048300000E0284602463049491C304600F07AF82C
:104840002D4890F86E00801C2B4981F86E0000E026
:1048500002243BE02248B0F87008142832DD3520ED
:10486000FFF7A4FE04464CB11CB13720FFF79EFEB3
:1048700004461CB13620FFF799FE04460CBB2D20E0
:10488000204900E020E00870084690F86E00801E85
:1048900081F86E00084690F86E00401B03D508466C
:1048A00090F86E0000E0284602461649491C304642
:1048B00000F040F8134890F86E00801C114981F810
:1048C0006E0000E0022401E0032400BF00BF60424C
:1048D0004FE700000411002036230020D02B0020D9
:1048E000BA2F00202C3C0020544B313A000000002D
:1048F000256300000D0A00009B3C0020544B323A17
:10490000000000000A3D0020544B333A0000000034
:104910000649074A0868504343F2390210440860C8
:1049200040087047014908607047000008110020E6
:104930006D4EC64140EA01039B0703D009E008C958
:10494000121F08C0042AFAD203E011F8013B00F854
:10495000013B521EF9D27047D2B201E000F8012BA0
:10496000491EFBD270470022F6E710B513460A46EF
:1049700004461946FFF7F0FF204610BD421C10F810
:10498000011B0029FBD1801A704730B50446002076
:10499000034600E05B1C934203D2E05CCD5C401B0D
:1049A000F8D030BD70B521F0004303430CD0C1F303
:1049B0000A550024D5EB040564EB0403D617AD1AA1
:1049C000B34102DB0020014670BD201841EB0251CB
:1049D00070BD0EB5C10F80EAE0700844CA0700211F
:1049E00040F233438DE80E000A460B4600F08CF887
:1049F00003B000BD0EB540F2334102910021CDE974
:104A000000110A460B4600F07FF803B000BDC1F369
:104A10000A5210B5C1F3130140F2FF3341F4801183
:104A20009A4201DA002010BD40F233439A42A2F2CA
:104A3000334203DC524200F04AF810BD904010BDF2
:104A400030B50B46014600202022012409E021FA5E
:104A500002F59D4205D303FA02F5491B04FA02F55B
:104A60002844151EA2F10102F1DC30BD2DE9F05FF2
:104A70000546002092469B468846064681464024CD
:104A80001BE0284641464746224600F020F85346A0
:104A90005A46C01A914110D311461846224600F0DA
:104AA0004BFA2D1A67EB01084F46224601200021E0
:104AB00000F042FA17EB00094E41201EA4F1010458
:104AC000DFDC484631462A464346BDE8F09F202AAF
:104AD00004DB203A21FA02F00021704721FA02F3A8
:104AE000D040C2F12002914008431946704710B5EA
:104AF000002B08DA401C41F1000192185B411A4377
:104B000001D120F0010010BD2DE9F04D92469B46E9
:104B100011B1B1FA81F202E0B0FA80F2203290468F
:104B200000F00AFA04460F4640EA0A0041EA0B0187
:104B300053465A46084303D120463946BDE8F08D16
:104B4000114653EA010015D0C8F140025046FFF764
:104B5000BEFF05460E4650465946424600F0ECF967
:104B6000084301D0012000E00020054346EAE0763A
:104B70002C4337430A984FEA4453A0EB08004FEA0E
:104B8000D4240A304FF0000244EA47544FEAD725B4
:104B900002D500200146D1E7010510196941DDE980
:104BA000084500196941BDE8F04DA0E72DE9FE4F29
:104BB000804681EA0300C00F0C46009021F00041BE
:104BC00023F00045B8EB0200A94105D2404621463A
:104BD00090461C460B46024623F00040104304D189
:104BE0004046214603B0BDE8F08F270DC7F30A0009
:104BF000C3F30A510290401A0190402866DAC3F3C9
:104C0000130040F4801B0098924620B10023D2EBA1
:104C1000030A63EB0B0B01985946C0F14002504662
:104C200000F08AF906460D4650465946019A00F0B2
:104C300092F910EB08006141002487EA115284EADE
:104C4000E7731A433BD0009A3AB3019A012A4FEA1C
:104C5000075210DC001B61EB02014FF0004202EA38
:104C60000752CDE90042001C41F5801132462B4627
:104C7000FFF74AFFB6E7001B61EB0201001C41F59C
:104C8000801300185B412018A2F5001747EB0301C1
:104C900040EAD570B6196D4111E06D084FEA36064D
:104CA00045EAC0754FEA0752001B61EB0201001C88
:104CB00041F5801149084FEA300000195141324650
:104CC0002B4603B0BDE8F04FFFF711BF009801225B
:104CD00040000023D0EB020263EBE0730098214612
:104CE0004FEAE074B8EB000061EB0401E9E783F000
:104CF00000435BE781F0004158E72DE9FE4F81EA70
:104D0000030404F0004421F0004100944FF0000B34
:104D100023F0004350EA010402D052EA030404D114
:104D20000020014603B0BDE8F08FC3F30A54C1F37D
:104D30000A552C44A4F2F3340194A0FB0254C1F3AD
:104D4000130141F48011C3F3130343F4801301FBF7
:104D5000024400FB034E840A970A44EA815447EA5E
:104D60008357A4FB076802958D0A05FB07854FEA68
:104D7000932C04FB0C542705029D4FEA065847EA82
:104D80001637B5EB08056EEB070C870E920E47EA57
:104D9000811742EA8312A7FB0201B6EB0B0164EB19
:104DA00000042B0D43EA0C335E1844EB1C50DA462A
:104DB0005146E7FB0201C5F313044FEA0B3343EA04
:104DC00014534FEA0432019C43EA0603A4F10C0495
:104DD0000294009CCDE900B4FFF796FEA2E72DE90E
:104DE000F04D81EA030404F0004B21F00045144625
:104DF0004FF0000A23F0004150EA050220D054EAA7
:104E000001021DD0C5F30A570246C5F31303C1F3CF
:104E10001300C1F30A5640F4801543F48013A7EB46
:104E20000608101BD64608F2FD3873EB050002D3C6
:104E300008F1010801E092185B41B8F1000F03DAB4
:104E400000200146BDE8F08D00204FF48011064699
:104E500084460EE0171B73EB050705D3121B63EBAB
:104E6000050306434CEA010C49084FEA300092184A
:104E70005B4150EA0107EDD152EA030012D082EA09
:104E8000040083EA0501084303D100224FF00043E8
:104E900008E0101BAB4102D20122002302E06FF0B8
:104EA000010253101AEB06004CEB085110EB0A00FC
:104EB00041EB0B01BDE8F04DFFF719BEC1F30A52FB
:104EC000C1F3130140F2FF3341F480119A4202DA38
:104ED00000200146704740F233439A42A2F2334227
:104EE00002DC5242FFF7F3BD00F026B830B50029CE
:104EF00004DB4FF00044404264EB0101002B04DB73
:104F00004FF00044524264EB0303994208BF9042C1
:104F100030BD0000064C074D06E0E06840F001039C
:104F200094E8070098471034AC42F6D3FEF7E2FA53
:104F300004E7000824E70008202A04DB203A00FAEE
:104F400002F1002070479140C2F1200320FA03F3E0
:104F5000194390407047202A06DBCB17203A41FACC
:104F600002F043EAE07306E041FA02F3D040C2F1F6
:104F70002002914008431946704770B58D1810F80B
:104F8000014B14F0030201D110F8012B231106D1BB
:104F900010F8013B03E010F8016B01F8016B521EA1
:104FA000F9D1B3B110F8012B04F00C048A1A0C2CBF
:104FB00004D0A2EB841203F1020308E010F8014BC5
:104FC000A2EB0422F7E712F8014B01F8014B5B1E3C
:104FD000F9D5A942D3D3002070BD2DE9FF4706467D
:104FE000DDE90C7099460D461446E846B0B94EE02E
:104FF00000204146325C3B5C5A400A54401C102859
:10500000F8D34A462946684600F0F4F910222946AA
:105010003846FFF78FFC103C10361035102CE7D2C5
:10502000002C51D00020414604E0325C3B5C5A40E9
:105030000A54401CA042F8D302E0385D0855641CB5
:10504000102CFAD369464A46084600F0D3F91022DC
:1050500069462846FFF76EFC31E01022314668466B
:10506000FFF768FC4A462946304600F02FF800203A
:10507000295C3A5C51402954401C1028F8D3102276
:1050800069463846FFF756FC103C10361035102C98
:10509000E3D2002C18D0102231466846FFF74AFCB4
:1050A00069464A46084600F011F80020414604E0EF
:1050B0000A5C3B5C5A402A54401CA042F8D31022A0
:1050C00069463846FFF736FCBDE8FF872DE9F84F03
:1050D000C3780478857883EA04634478867A240464
:1050E00084EA052463401468857983EA0409C37956
:1050F0000479DFF8ECE283EA046443791B0483EA71
:1051000005235C405368057A5C40C37A83EA0563F3
:10511000457A2D0485EA06256B409568B14E83EAF1
:10512000050BC37B057B83EA0565437B807B1B0402
:1051300083EA00204540D0684540D2F8F000401096
:10514000CDF80000A8484FEA1963C5F3074750F8A7
:10515000233000F58060C9F3074C50F82700CBF3EB
:10516000072743405EF82700E7B2C4F3074856F824
:105170002770784043401069270E43409A48C4F393
:10518000072450F82700994F5EF8244057F82C70F8
:10519000C5F3072C78405EF82C700BF0FF0C56F826
:1051A0002CC087EA0C07784057694FEA1B6C78409F
:1051B0008D4F57F82C70DFF834C25CF828C0C9F363
:1051C000072887EA0C075EF828C005F0FF0856F8A4
:1051D00028808CEA080C87EA0C07D2F818C087EA06
:1051E0000C0A2F0E804DCBF3074C55F827507F4FFC
:1051F00057F82C707D4009F0FF0756F827707C4067
:105200006540D46920326540009C641E009461D0E2
:10521000754C1F0EC5F3074C54F82740734FC0F36D
:10522000074857F82C70CAF3072C7C405EF82C70A6
:1052300000F0FF0C56F82CC087EA0C077C4017687A
:10524000C3F3074C84EA0709674C070EC0F3072035
:1052500054F82740654F5EF8200057F82C70C5F3CE
:10526000072C7C405EF82C700AF0FF0C56F82CC01E
:1052700087EA0C077C4057684FEA1A6C7C405A4F0B
:1052800057F82C70DFF864C15CF828C0C3F3072816
:1052900087EA0C075EF828C005F0FF08DBB256F875
:1052A000288056F823308CEA080C87EA0C07D2F8DD
:1052B00008C0584087EA0C0B2F0E4B4DCAF3074C21
:1052C00055F82750494F57F82C707D404540D0681D
:1052D000454037E7464C1E0EC5F3074754F8266095
:1052E00054F8277006F07F4607F47F077E40CAF324
:1052F000072734F8277007F47F477E40C7B214F8B9
:1053000027707E4017687E40370E0F70370C4F7045
:10531000370A8F70CE70060EC3F3074754F8266025
:1053200054F8277006F07F4607F47F077E40C5F3E8
:10533000072734F8277007F47F477E400AF0FF07FD
:1053400014F827707E4057687E40370E0F71370C77
:105350004F71370A8F71CE714FEA1A66C0F3074753
:1053600054F8266054F8277006F07F4607F47F074C
:105370007E40C3F3072734F8277007F47F477E4049
:10538000EFB214F827707E4097687E40370E0F7298
:10539000370C4F72370A8F72CE722D0ECAF3074642
:1053A00054F8255054F8266005F07F45C0F30720D7
:1053B00006F47F0634F82000754000F47F40454035
:1053C000D8B214F820004540D0684540280E087334
:1053D000280C4873280A8873CD73BDE8F88F000045
:1053E0000408002024DD000804000020040400203C
:1053F00024E100082DE9F84FC3780478857883EA22
:1054000004634478867A240484EA0524634014689B
:10541000857983EA0409C3790479DFF8ECE283EA49
:10542000046443791B0483EA05235C405368057ACE
:105430005C40C37A83EA0563457A2D0485EA062534
:105440006B4095680EF5806683EA050BC37B057B90
:1054500083EA0565437B807B1B0483EA002045408B
:10546000D0684540D2F8F00040100090A7484FEABD
:105470001963C4F3074750F8233000F58060CBF37D
:10548000074C50F82700CBF3072743405EF827006E
:10549000EFB2C5F3074856F82770784043401069CB
:1054A000270E4340994850F82700994F57F82C7021
:1054B000C5F3072C78405EF82C7009F0FF0C56F805
:1054C0002CC087EA0C07784057694FEA1B6C78407C
:1054D0008E4F57F82C70DFF838C25CF828C0C9F33B
:1054E000072887EA0C075EF828C004F0FF08C4F319
:1054F000072456F828805EF824408CEA080C87EAD6
:105500000C07D2F818C087EA0C0A2F0E7F4DC9F39A
:10551000074C55F827507E4F57F82C707D400BF004
:10552000FF0756F827707C406540D46920326540FB
:10553000009C641E009462D0744C1F0EC0F3074C94
:1055400054F82740724FC5F3074857F82C70CAF338
:10555000072C7C405EF82C7005F0FF0C56F82CC030
:1055600087EA0C077C401768CAF3074C84EA0709EE
:10557000664C070E54F82740654F57F82C70C5F35A
:10558000072C7C405EF82C7003F0FF0C56F82CC002
:1055900087EA0C077C4057684FEA1A6C7C405B4FE7
:1055A00057F82C70DFF868C15CF828C0C3F30728EF
:1055B00087EA0C075EF828C000F0FF08C3F3074332
:1055C00056F82880C0F307208CEA080C87EA0C07FD
:1055D000D2F808C05EF8200087EA0C0B2F0E4B4D66
:1055E00055F827504A4F57F823305D400AF0FF0323
:1055F00056F8233058404540D068454036E7454C82
:105600001E0EC0F3074754F8266054F8277006F0C2
:105610007F4607F47F077E40CAF3072734F82770D8
:1056200007F47F477E40EFB214F827707E4017687A
:105630007E40370E0F70370C4F70370A8F70CE7068
:10564000060ECAF3074754F8266054F8277006F090
:105650007F4607F47F077E40C5F3072734F827709D
:1056600007F47F477E40DFB214F827707E4057680A
:105670007E40370E0F71370C4F71370A8F71CE7124
:105680004FEA1A66C5F3074754F8266054F82770A6
:1056900006F07F4607F47F077E40C3F30727C3F376
:1056A000074334F8277007F47F477E40C7B214F8E9
:1056B00027707E4097687E40370E0F72370C4F720E
:1056C000370A8F722D0ECE7254F8255054F82330BD
:1056D00005F07F45C0F3072003F47F0334F8200072
:1056E0005D4000F47F4045400AF0FF0014F82000C0
:1056F0004540D0684540280E0873280C4873280A96
:105700008873CD73BDE8F88F24D1000824C9000840
:1057100024CD000824D900082DE9F043154600F0F7
:10572000BDF800287DDBD5F8F00000212C46800074
:105730001AE000BF54F8212054F8203044F82130FA
:1057400044F8202004EB810204EB800356685F6874
:1057500057605E6096689F6897609E60D668DF6855
:10576000D760091D001FDE608142E3DB012188E074
:1057700054F8106F4748320EDFF81C9110F82230B1
:10578000C6F3074259F8237010F8223009F58062F9
:1057900052F823305F40C6F30723F6B210F823C057
:1057A00010F8268002F5806300F5806653F82CC05F
:1057B00056F828808CEA080C87EA0C07276067688F
:1057C0004FEA176C10F82C8059F828C0C7F3074827
:1057D00010F8288052F828808CEA080CC7F30728B4
:1057E000FFB210F8288010F8277053F8288056F878
:1057F000277088EA07088CEA080CC4F804C0A76878
:105800004FEA176C10F82C8059F828C0C7F30748E6
:1058100010F8288052F828808CEA080CC7F3072873
:1058200000E034E0FFB210F8288010F8277053F839
:10583000288056F8277088EA07088CEA080CC4F814
:1058400008C0E7684FEA176C10F82C8059F828C098
:10585000C7F3074810F8288052F828208CEA020C79
:10586000C7F3072210F8222053F82220FBB210F8C9
:10587000230056F8200042408CEA020C491CC4F870
:105880000CC0D5F8F00088423FF772AF0020BDE8A9
:10589000F083000024D9000804000020F0B50023A4
:1058A00050B14AB14FF4807580297DD0C02908D00D
:1058B000A94204D0981EF0BD4FF0FF30F0BD0E2479
:1058C00000E00C24C2F8F040C4780678877884EAB7
:1058D00006644678360486EA072674401460C47964
:1058E0000679877984EA06644679360486EA0726CB
:1058F00074405460C47A067A877A84EA0664467AE9
:10590000360486EA072674409460C47B067B877B56
:1059100084EA0664467B360486EA072674407E4F96
:10592000D460A7F5406480297DD0C67C90F810C073
:1059300090F812E086EA0C6690F811C0C0294FEA90
:105940000C4C8CEA0E2C86EA0C061661C67D90F88B
:1059500014C090F816E086EA0C6690F815C04FEA7D
:105960000C4C8CEA0E2C86EA0C06566172D0C67E70
:1059700090F818C090F81AE086EA0C6690F819C002
:105980004FEA0C4C8CEA0E2C86EA0C069661C67F18
:1059900090F81CC086EA0C6690F81DC0807F4FEA24
:1059A0000C4C8CEA002000E055E04640D661A9424C
:1059B0007ED1D0691168C0F30745C6B254F82550AE
:1059C00034F8266005F07F456940C0F3072506F4EA
:1059D0007F4654F8255005F47F0575406940050E53
:1059E00014F82550694057F823505B1C6940116238
:1059F00055684D40556296686E409662D168714018
:105A0000D162072B54D00E0E156954F82660C1F3ED
:105A1000072C06F07F467540C1F3074654F8266010
:105A200006F47F0600E018E034F82CC0C9B20CF48C
:105A30007F4C86EA0C0614F8211075404D40156322
:105A400051696940516395694D406840C2E90E5003
:105A50002032AEE72DE00A2434E7D0681168C0F3A5
:105A60000745C6B254F8255034F8266005F07F4546
:105A70006940C0F3072506F47F4654F8255005F425
:105A80007F0575406940050E14F82550694057F8A8
:105A900023505B1C6940116155684D405561916808
:105AA00069404840C2E906100A2B33D01032D4E7CF
:105AB00030E050691168C0F30745C6B254F825506C
:105AC00034F8266005F07F456940C0F3072506F4E9
:105AD0007F4654F8255005F47F0575406940050E52
:105AE00014F82550694057F823505B1C69409161B8
:105AF00055684D40D561916869401162D5684D4047
:105B00005562082B06D0116969404840C2E90A1065
:105B10001832CEE70020F0BD24E50008FEE7C1B250
:105B2000000A40EA012070472DE9F84F0020ADF847
:105B30000000DFF830A14BF6BF7648F28007484DF1
:105B400040F68F78474C48F60F7BDFF81C910AF13E
:105B5000440A2DE0018811F00F0244490A7030D048
:105B600004EB82000168ADF80010BDF800100904D4
:105B70000BD53E49026802EA080202603C4A0878F6
:105B800002EB800050F8040C8047BDF800000006CE
:105B90000ED53649087804EB8002106800EA0B0045
:105BA00010603448097800EB810050F8040C8047FD
:105BB000DAF800104846A9F800100904CAD4BDE874
:105BC000F88F21682980298801F0300169802988AF
:105BD00001F4405129802168314081F4005181F065
:105BE0002001394321600088C006206815D400EAEE
:105BF0000B00206002F07CF926E02988890401D599
:105C000080F400506988C90626D46988890601D5C0
:105C100080F0200038432060D1E7ADF80000BDF8E7
:105C20000000000506D5206800EA0800206004F0A6
:105C30005BFD09E0BDF800000004B9D5206800EA6A
:105C40000800206003F082FB206829883040C904E6
:105C5000D3D580F48050D0E780F01000D5E7000065
:105C600052100020005C00405A0F0020401000201D
:105C7000780F00205C0F0020F8B5144901248C70C7
:105C8000134A2046174602F19B0101F0F7FF104826
:105C90003038002690F83710008F01F01F0145BA08
:105CA00061F31F452146284601F0B2FE084B01462C
:105CB0009B333A460120009601F0C0FE641CE4B21A
:105CC000284601F0A1FFA042ECDAF8BD040C002048
:105CD0009411002010B50346022002E09C5C604055
:105CE000521C8A42FADB10BD10B50346002002E0C8
:105CF0009C5C6040521C8A42FADB10BD10B5034622
:105D00000022104605E000BF13F8014B521C20444E
:105D1000C0B28A42F8DB10BD074901EB8000016880
:105D2000490407D5016848F68F7211404CF2800291
:105D30001143016070470000005C0040074901EB1F
:105D400080000168490607D5016848F68F72114046
:105D500048F2C0021143016070470000005C00403F
:105D6000054901EB8001086848F68F62104048F24F
:105D70008002104308607047005C00402DE9FC4140
:105D80000026424F009601963968062806D10A7807
:105D900002F07F02012A01D14A792AB10A7802F081
:105DA0007F02212A0AD06EE08878222802D021289A
:105DB00002D068E0364A09E0364A07E0032804D0FA
:105DC00009280CD001280FD05DE0334A002A5AD0B0
:105DD0008A614E82002090470020BDE8FC812F4858
:105DE00088614E8252201AE02D4C2E4D2078AB282F
:105DF00017D0002001F080FD01460822684605F01A
:105E0000E1F8002004F0F8FA0821002004F0CEFAAE
:105E10002868C0F301100228FAD1396808200882E6
:105E2000DAE72868C0F301100228FAD11E48A178E9
:105E300000EBC1000168009140680190002001F072
:105E40005BFD01460822684605F0BCF8002004F01E
:105E5000D3FA0821002004F0A9FAA078401CC0B2AF
:105E6000A0702968C1F301110229FAD16178884232
:105E7000CED1A670DD20607080210B48FEF773FD47
:105E8000FF202070C4E70220A7E700004410002094
:105E9000ED5E0008C55E0008D15E0008A191000813
:105EA000940F0020005C004011220020014904F002
:105EB000D9BC0000A40F0020014904F0D3BC0000AD
:105EC0009C0F0020014904F0CDBC0000B40F00205D
:105ED00008B104487047044901200968088200207D
:105EE00070470000980F002044100020014904F082
:105EF000B9BC0000AC0F002005490968C978042925
:105F000001D900207047034A02EBC10104F0AABC8A
:105F1000441000201010002009B9002800D00220F1
:105F20007047000008490968097801F07F012129BC
:105F300003D10B2803D00A2803D00220704700F0B9
:105F400073B800207047000044100020284810B5A6
:105F5000006800218172C1722649C979417200200E
:105F600004F094F94FF40071002004F055FA302148
:105F7000002004F029FA4FF44051002004F0DEF92B
:105F80001821002004F0AAF95821002004F0FEF99D
:105F90000020FFF7E5FE184C0020217804F0AEF950
:105FA000002004F0E3F92178002004F0FFF900203C
:105FB00004F022FA4FF4C061012004F02DFA4FF4EE
:105FC0008071012004F0E2F94021012004F0EEF993
:105FD0000021012004F0B2F92021012004F0F4F99D
:105FE000002004F05BF905490120086010BD0000A5
:105FF00044100020BAE500083C11002034100020B5
:1060000004480068807A002802D00349052008600F
:106010007047000044100020341000200149042083
:106020000860704734100020034804490068C078B5
:10603000486000207047000044100020940F0020AA
:1060400001490520086070473410002001490520EF
:10605000086070473410002010B501F0ABFC054813
:1060600000240068847203F063FA04F05FFF0248C2
:10607000046010BD44100020341000202DE9F047CA
:10608000184FDFF864900E46824600250C463A60B1
:10609000386828B13CB1402C07D34FF0400805E0E8
:1060A000E8B2BDE8F087F0B2FBE7A04641210F4817
:1060B000FEF759FC0AEB050142460C48FEF73AFC94
:1060C00048460168C1F301110229FAD14246074945
:1060D000812004F03BFF012004F08EF94544A4EB3D
:1060E0000804D5E7300E0020045C0040D0210020D9
:1060F00010B5302205490648FEF71CFC034924224E
:10610000BDE8104030310348FEF714BCBC0F00203E
:1061100010110020401100202DE9FC4100250F4600
:10612000804600952C460C4E019511E00095019596
:1061300018F8040016F8101006EB40008DF8001057
:1061400040788DF80200684602F050F8641CA4B252
:10615000BC42EBD3BDE8FC81580E00202DE9F0478E
:10616000DFF89480254F4FF03009D8F8001001F186
:106170001005088A0E7A08B9042E04D0AC88A04213
:1061800015D8042614E01E480178012903D00726FB
:10619000102038802BE01B4A002112681A4B92B263
:1061A00003EB42025160A7F8009001701FE0022645
:1061B000844200D90446A9682046884782460020C8
:1061C00001F09AFB01462246504604F0FBFE2146B0
:1061D000002004F0EBF82888001B28806888204401
:1061E0006880A7F8009009494FF440500880D8F81B
:1061F00000000672BDE8F087441000205410002013
:106200003C100020505C0040006000405210002014
:106210002DE9F047244EDFF894803027356835F8B3
:10622000100FA968C9B120B3AC88844200D90446D4
:106230002046884781462888001B2880688820449B
:106240006880002001F048FB01462246484603F0E2
:10625000A1F80821484603F07BFA288848B1144980
:106260004FF4405008800021084604F09FF8A8F839
:1062700000702888A988884201D3032001E020B15A
:10628000052031680872BDE8F08731680620087281
:10629000084900200968084A89B202EB41014860B8
:1062A000A8F80070EFE70000441000205410002010
:1062B00052100020505C004000600040F8B55C4C7B
:1062C0005C4D09262068002729684278062A05D0F7
:1062D000AAB1082A4BD00A2A4ED069E002785206A9
:1062E00066D18078012804D0022804D0032804D085
:1062F0005EE0C96954E0096A52E0496A50E04288A8
:10630000A2BBC288022A53D102797ABB0278530613
:1063100001D1838833B102F07F02012A04D0022A1E
:106320000CD045E044493BE08A6940790021904720
:10633000E0B92068807A0028F4D139E0417901F091
:106340000F0001F070020B063C4951F8201003D5F4
:10635000C1F30111090102E0C1F301310903384B16
:106360001B78834224D90AB90029DBD120E00078C8
:1063700040061DD1334913E0027802F07F02012A62
:1063800016D1827AA2B1428892B9027982B9C288C2
:10639000012A0DD18A6940790021904740B92A49E4
:1063A00031B120684782816100208847002006E0E3
:1063B00029682068096940788847032807D0216840
:1063C0000A8AA2F57F43FF3B04D10E72F8BD206814
:1063D0000672F8BD022809D042B10878000621D51E
:1063E000C8880090824205D9088213E04FF0080067
:1063F0000872F8BD0ED22868144B90F82C00824227
:1064000001D21F7006E0B2FBF0F400FB142008B9C3
:1064100001201870286890F82C008882BDE8F840A8
:10642000FFF79CBE03200872094900030880F8BDED
:106430004410002048100020A9A80008005C00407B
:10644000301000203DA8000881A800083C10002062
:10645000521000202DE9F04FB5B0642102A8FEF7DC
:1064600082FA00202790289029902A9020211CA8A9
:10647000FEF779FAFD48C17955297DD18246FC4E57
:10648000407A304410F8012C3078022822D134466A
:106490007378A1782079E5784FF47A785A2B6CD00C
:1064A0005A2907D0A52D05D0A52803D04FF0AD0C53
:1064B0008AF801C0EF4C302B0DD05A2BEFD06A2B4D
:1064C00073D02746412B7F7B31976FD0522B6ED0F4
:1064D000532B6DD0AEE03029FCD1302DFAD13028CD
:1064E000F8D1642102A8FEF73EFA0020315C0329AE
:1064F00013D0401C80B26428F8D300223946701CA7
:10650000FFF7E8FBF1194A78FA21904201D1392FBF
:1065100005D08AF80310FC20A7E00746EDE7142217
:10652000711D02A8FEF706FA002502AF785D30382B
:106530004A2803D8D0A102A800F08EFD6D1CADB290
:10654000142DF3D31422711D02A8FEF71EFA4FF08A
:10655000F1084FF0FC0960B34FEA09008AF8030024
:10656000C349202219318B4602A8FEF7E3F9002522
:10657000785D30384A2801E079E047E003D8BEA1D1
:1065800002A800F069FD6D1CADB2202DF0D32022D1
:10659000594602A8FEF7F9F9BB4D68B185F800909D
:1065A0009AF80300F1280AD01BE041E04CE061E0DA
:1065B000A7E0FFE74046D1E785F80080F0E7142226
:1065C000711D02A8FEF7B6F90023142202A91CA827
:1065D00005F0F3F91C9820631D986063BDF87800FE
:1065E00020872878F12896D12022594602A8FEF764
:1065F000A1F90023202202A91CA805F0DEF99D487C
:1066000010221CA92030FEF795F984E75A2911D1F0
:10661000A52D0FD1A5280DD19AF80100401C8AF8AC
:1066200001009AF80100B02821D104F041FD04E0F6
:10663000032902D005F020FC16E0062005F0A6FC98
:10664000404605F0AFFA0FE1332F01D0342F0BD1C4
:1066500074880022611D8648FFF746FB311949798D
:10666000884201D1412000E0152005F08FFC35B0B3
:10667000BDE8F08F582923D010DC4C2929D006DC46
:106680001D291FD01F2928D0222915D12BE04E29E2
:1066900031D051292DD054290ED12EE083291AD082
:1066A00006DC742921D07E2921D0802904D118E06C
:1066B000842914D0852922D005F0DEFB152002E0C4
:1066C000582000E01D2005F061FC00208AF807003A
:1066D000CDE74C20F7E78320F5E71F20F3E7842080
:1066E000F1E78020EFE72220EDE77420EBE77E2042
:1066F000E9E75120E7E74E20E5E75420E3E785206E
:10670000E1E7DFF86CC1B3460CF105090CF10403B5
:106710009CF805709CF806609CF804C04929ACF10F
:10672000300E6FD022DC21296DD00CDCA1F11101DB
:106730000D2953D2DFE801F0FD52FC526052FBFA02
:10674000F9F85252F70036297DD006DC23296BD0A8
:10675000342979D0352941D1B4E2372975D045485B
:106760008030382972D0392938D112E3DFF800C1DE
:106770004FF008080CF1050C742918F80CC0CDF87E
:10678000B0C072D018DCDFF8E8C05029DCF808800F
:10679000DCF804C038D008DC4A2977D04B297FD0F8
:1067A0004C2975D04E2919D10CE2542971D05829A1
:1067B00070D05C2912D155E185296CD008DC0DF12F
:1067C000A408812968D0822967D0842906D1D4E120
:1067D000862972D0D22971D0D32970D0152005F026
:1067E000D5FB05F049FB00BF05F046FB01208AF808
:1067F000000004F025FC3AE7012D01D1162010E03D
:1068000015200EE05CE00CE2302801D03128F7D1F1
:10681000012DF5D1032FF3D19642F1D184F8A200D6
:10682000062005F0B3FBDFE7382801D03028E7D198
:10683000012DE5D1032FE3D19642E1D194F89E10CA
:106840008842EDD003E052E227E277E28CE284F85E
:106850009E00404605F0A6F9062005F097FB0120B2
:106860008AF8000004F0ECFB18E059E1040C002069
:106870004E3B0020641100203A3B3C3D3E3F405BD4
:106880005D5E5F6000000000960F002023E007E0DF
:106890005DE18AE130E17BE128E084E002F0DCFCAC
:1068A000A0F120015E29ABD8012DA9D1032FA7D1DA
:1068B0009642A5D184F89F00B2E7C6E0BBE1D3E1E0
:1068C00006289DD8012D9BD1032F99D1964297D1AF
:1068D00084F8A000A4E7042892D8012D90D1032FBA
:1068E0008ED196428CD184F8A10099E75E46082D9E
:1068F00001D0102D84D10027F05D032803D07F1C28
:10690000BFB2322FF8D35D4600223946681CFFF72C
:10691000E1F9E9194978884289D100F065FC102332
:1069200027AAFD4906E0DBE06FE1CEE0A7E0C2E088
:10693000B6E0AAE0F9A001F031F8F74EE8780D3E94
:1069400008281DD01028B0D1F94A802127A8FEF7C9
:10695000E3FE1022291D1CA8FDF7ECFFF44A1CA938
:106960002DA8FEF7B3FB072231461CA8FEF70DF851
:1069700000287FF458AF9DF87700012810D00AE076
:1069800068681C90A8681D900123424627A91CA88E
:1069900005F0A6FFE7E7302084F89A00312049E0AF
:1069A00000F0B8FFF7E75E46102D45D10025705D79
:1069B000032803D06D1CADB2172DF8D30022294651
:1069C000701CFFF787F971194978884234D17068D3
:1069D0001C90B0681D9000F007FC102327AACE4938
:1069E000CEA000F0DBFF0123424627A91CA805F03A
:1069F00077FFC949062217391CA8FDF7C6FF28B141
:106A0000152005F0C3FA00F085FFEDE6F0681C9054
:106A100030691D900123424627A91CA805F060FF9C
:106A20001C98C4F83A001D98C4F83E00312084F840
:106A30009A0034206073F3E600F06CFF152005F037
:106A4000A5FA302084F89A00CEE607283FF6D8AEA3
:106A5000012D7FF4D5AE032FFBD19642F9D184F8F6
:106A60009100DDE6BEF1080FBFF4CAAE012DF0D1F2
:106A7000032FEED19642ECD184F89000D0E60020AE
:106A80008AF8030000F0FCF9CAE6BEF1040FDDD875
:106A9000012DDED1032FDCD19642DAD16071BFE641
:106AA000BEF1090FD2D8012DD3D1032FD1D19642F7
:106AB000CFD16072B4E67F28C8D8012DC9D1032F89
:106AC000C7D19642C5D1A072AAE6BEF1090FBDD8C2
:106AD000012DBED1032FBCD19642BAD1E0729FE600
:106AE000012DB6D1BEF1040FB0D8032FB1D196421B
:106AF000AFD184F89C0093E6302801D03128A8D18A
:106B0000012DA6D1032FA4D19642A2D19AF8041048
:106B1000312901D1302801D031289AD1A0737FE6E4
:106B2000082D96D18348285C032892D1944590D1B2
:106B30002A460BF104018048FDF727FF18B13020E9
:106B40008AF804005CE631208AF8040068E63128FF
:106B500001D032280BD1032F09D1964207D13199A8
:106B6000342901D233216173E073012003E030281E
:106B7000E8D1E0730020207352E60828E2D8012D06
:106B8000E0D1032FDED19642DCD184F88F0047E6B6
:106B9000012DD7D1312801D03028D3D1032FD1D125
:106BA0009642CFD184F88E003AE6082DCAD1E85C2F
:106BB0000328C7D12C989042C4D1C4F83AC0C4F875
:106BC0003E802DE6E0793028BCD158460A2DB9D157
:106BD000E95C0329B6D115F809109142B2D11A34F3
:106BE000C4F828C0C4F82C8081892186C4F816C056
:106BF00001896183807A2077102060770020A07758
:106C0000E077312004F8130C0AE6012D9AD13028E0
:106C100001D0312896D1032F94D1964292D1A07100
:106C2000FEE57F288ED8012D8CD1032F8AD1964284
:106C300088D12072F4E55E460F2D9FD8E85C0328CA
:106C400096D115F80900904292D133480F217F3830
:106C50000746FDF788FE2A46311D3846FDF76AFED5
:106C6000F07884F89800DBE55E460F2D86D8E85C66
:106C7000032885D115F80900904285D126480F21B7
:106C800070380746FDF76FFE2A46311D3846FDF77E
:106C900051FEF07884F89900C2E55946062DC1D816
:106CA000E85C032885D115F80900904284D10020C2
:106CB00044F86A0F091DA080174884F828502A4616
:106CC000613879E05946062DACD8E85C032885D1B7
:106CD00015F80900904299D100202067A4F87400AB
:106CE0000D48091D84F893502A465B3864E05946E4
:106CF000062D97D8E85C032888D115F80900904242
:106D000084D1002044F8760F091DA0800248A577A1
:106D10002A46553850E000002F1200203C3C3C3CF5
:106D20003C3C3C3C3C3C3C3C3C3C3C3C0000000093
:106D3000A01A00204F3B00200F0C00205E46062DBD
:106D400094D8E85C032894D115F80900904290D1BA
:106D5000002044F87C0F2A46A080311D1848FDF71A
:106D6000E9FDF07860765BE55946062D97D8EB5C37
:106D7000032B97D115F80930934293D184F896509C
:106D80000022C0F80220C2800D48091D2A46801D3D
:106D900012E05946062D97D8EB5C032B86D115F8E7
:106DA0000930934293D184F8975000228260828107
:106DB00003482A46091D0C30FDF7BCFD30E50000F4
:106DC000E01100202DE9F84300252A4E2A4C8DF8C9
:106DD00000504FF019085527684604F0CBF80128F9
:106DE00045D1607948B1192812D01A281FD0E0790E
:106DF0000028F1D1E771657103E09DF800000228D9
:106E000001D0A571E8E73070A072012020722BE05C
:106E10009DF80000032801D11A216171217A7218AE
:106E2000491C21721070A17A4140A172D4E79DF8EB
:106E30000000A17A884204D0A27A80F00201914237
:106E400007D1217A7218491C21721070207A607261
:106E5000D0E7E771217A7218491C21721070A17A6B
:106E60004140A172207A607284F80580B4E7BDE8E1
:106E7000F88300004E3B0020040C00207047000007
:106E80002DE9FE4F0020604C009001900290E079C7
:106E9000312803D0302801D03020E0715BA0C82118
:106EA00000682060D4F84200E57983460090D4F869
:106EB000460001908246B4F84A00ADF808008146C9
:106EC000206B0090676B01978046268FADF80860B5
:106ED0004D48FDF748FDC4F8308067632687C4F845
:106EE00042B0C4F846A0A4F84A90AA20E571312621
:106EF00020716671A671302D06D146A0016821630C
:106F000041686163008920870D202072803430271A
:106F100004F8777C04F8760C04F8756C002504F806
:106F2000745C04F8736C384804F8726C04F8716C83
:106F300010223BA11030FDF7FDFC334810223DA18B
:106F40002030FDF7F7FC40A0016844F8461C40687B
:106F500044F8420C2C480F214C30FDF704FD2A4820
:106F60000F215B30FDF7FFFC44F8165C24F8125C3F
:106F700044F8105C24F80C5C44F80A5CDFF8888064
:106F800024F8065C44F8045C08F180082580C8F801
:106F90000250A8F80650C8F80850A8F80C50A7737B
:106FA0000820E0733720207407216174A574E5740C
:106FB00025756575A575E575A776E77626776077FB
:106FC000A07F803C382803D0302801D084F89E7000
:106FD0002A2004F89F0F062060700420A0700A4841
:106FE000E7701021A430FDF7BEFCC8F83450C8F893
:106FF00038501849C8F83E50C8F84250012008706F
:10700000BDE8FE4F04F01CB86411002055AA55AA33
:107010000000000000000000000000100000000060
:1070200000010203040506070809AAABACADAEAF28
:107030000000000000010203040506070809AABBBE
:10704000CCDDEEFF00000000010203040506070886
:1070500000000000040C002030B5A1B00D46040073
:1070600018D0002D16D080216846FDF77CFC6946BB
:10707000012201E00A546D1C28780028FAD1254627
:1070800004E00A5C0AB904F8010B6D1C287800289A
:10709000F7D1207021B030BDFCB500210B466A4607
:1070A0005354491CC9B20829FAD300230021C55CF6
:1070B000C1F1070625FA01F707F001079F40945D2B
:1070C000491C3C43C9B294550829F1D35B1CDBB27F
:1070D000082BEBD35FF0000102EB410344185B780F
:1070E000435412F81130491CC9B223710429F3D357
:1070F000FCBD2DE9FC438146002004466B461C5430
:10710000401CC0B20828FAD30024012719F80460F3
:10711000002007FA00FC06EA0C05C540C0F1070C88
:10712000A54013F80C80401C45EA0805C0B203F8DE
:107130000C500828EDD3641CE4B2082CE6D30020E0
:107140001C5C0C54C0F106041C5D1454401CC0B2FD
:107150000428F5D3C87800F0F000C870D07800019A
:10716000D070BDE8FC8370B5C1F10806FF22B240C3
:10717000D5B20278C3782A4043EA1213C3700022C2
:10718000845C8C4083185B782B40F3401C43845410
:10719000521CD2B2032AF3D3C2788A40C27070BDA7
:1071A00070B500221DE003785D080570447866081C
:1071B00046EAC3134370867806F00103760846EA70
:1071C000C4148470C478640844EAC313C3701C07F1
:1071D00005D045F08004047003F0F003C370521C26
:1071E000D2B28A42DFDB70BD054910B5102201F131
:1071F000AB00FDF79FFBBDE81040FEF73DBD000072
:107200008411002010B5012000F07CF901280CD178
:1072100000F0BEF8144C61784FF08040022905D888
:10722000808C20816078401C607010BD0F49B1F8DF
:10723000E813B1F5FA7FF8D2808C608160892189EA
:10724000884203D960892189401A05E020894FF6D8
:10725000FF71081A6189084481B200220120FDF7FC
:10726000E3F96089208110BD200E0020D02B002082
:1072700010B5022000F046F901280DD1022000F0DF
:1072800087F8154CA1784FF08040022905D8808CF2
:10729000A081A078401CA07010BD104940F21A4295
:1072A000B1F834189142F7D2808CE081E089A1894D
:1072B000884203D9E089A189401A05E0A0894FF6E8
:1072C000FF71081AE189084481B200220220FDF70B
:1072D000ABF9E089A08110BD200E0020BA2F00205C
:1072E00010B5042000F00EF9012814D1042000F09C
:1072F0004FF80421084800F0E4FA084C38B1FDF7D3
:107300002CFA00212046BDE8104003F065BCFDF7D3
:1073100081F90121F6E710BD000C01400004004096
:1073200010B5802000F0EEF801280DD1802000F08B
:107330002FF8154C21784FF08040022905D8808C19
:10734000A0802078401C207010BD1049B1F8401674
:10735000B1F5487FF8D2808CE080E088A18888422F
:1073600003D9E088A188401A05E0A0884FF6FF7194
:10737000081AE188084481B200221046FDF754F94A
:10738000E088A08010BD0000200E002036230020E1
:107390000149086070470000140401402DE9FF5FB7
:1073A0000426ADF80C600327DFF850A18DF80E70AD
:1073B0008DF80F6003A9504600F034FA4FF4E06BEB
:1073C000584601F035FF08208DF8080000258DF89B
:1073D00009508DF80A5001248DF80B4002A801F0E5
:1073E000F5FE0221012000F009FA8DF804504FF05B
:1073F00010088DF8058000968DF80640684600F06C
:1074000091F84FF08009ADF80C908DF80E708DF862
:107410000F6003A93A4800F005FA584601F008FF4A
:1074200017208DF808008DF809508DF80A408DF866
:107430000B4002A801F0CAFE0721002000F0DEF98F
:107440008DF804508DF80580CDF800908DF8064039
:10745000684600F067F8ADF80C408DF80E708DF8B6
:107460000F6003A9504600F0DDF9584601F0E0FE38
:1074700006208DF808008DF809504FF002098DF8AC
:107480000A908DF80B4002A801F0A0FE0021012017
:1074900000F0B4F98DF804508DF8058000948DF853
:1074A0000640684600F03EF8ADF80C908DF80E707E
:1074B0008DF80F6003A9504600F0B4F9584601F06A
:1074C000B7FE07208DF808008DF809508DF80A7076
:1074D0008DF80B4002A801F079FE0121084600F06A
:1074E0008DF98DF804508DF80580CDF800908DF859
:1074F0000640684600F016F8BDE8FF9F000C01400A
:1075000000080140064A014600201268044B0A4068
:1075100014331B680B4202D0002A00D001207047B0
:107520000004014030B51A498379026853B30B68EF
:1075300093430B600A1D13680468A3431360027928
:107540000A441368046823431360114A083213681D
:107550000468A3431360131D1C680568AC431C60DA
:107560004479102C05D021440A68006802430A605F
:1075700030BD116804682143116019680068014337
:10758000196030BD0079084401689143016030BD45
:107590000004014070B502787C2303EA5205C478E8
:1075A000C2F3C10245EAC41414430C7002785401BA
:1075B00002F0010244EAC2054278102404EAD2062D
:1075C000354345EA52124A70427802F01805ED0040
:1075D00002F01F0245EA4202857842EAD5128A701B
:1075E000827803EA52054378C2F3C10245EAC31325
:1075F0001343CB708278530102F0010243EAC203C5
:10760000C27804EAD204234343EA52120A71C278D0
:10761000007802F01803DB0002F01F0243EA420286
:1076200042EAD010487170BD38B5044604208DF888
:10763000000000F07BF8A00508D1204600F014F807
:107640008DF800009DF80000042803D000F03EF8FB
:10765000002038BD00F03AF8012038BD0149032070
:10766000086070473410002070B505464FF430268E
:10767000304600F067F8042811D1094C206940F029
:10768000020020616561206940F0400020613046C1
:1076900000F058F8216941F6FD721140216170BD7A
:1076A0000020024008490420CA68D20701D0012006
:1076B0007047CA68520701D502207047C968C906D9
:1076C000FBD50320704700000020024002480169FA
:1076D00041F0800101617047002002402DE9F8412E
:1076E000064600204FF4005700900D46384600F043
:1076F00029F8042816D10C4C206940F001002061C3
:107700003580B846384600F01DF8BF1E042806D163
:10771000B61C280C00963080404600F013F8216912
:1077200039402161BDE8F881002002400348024948
:1077300041600349416070472301674500200240D2
:10774000AB89EFCD00B50346FFF7ACFF03E000BF08
:10775000FFF7A8FF5B1E012803D0002B00D10520F6
:1077600000BD002BF4D1FAE770B5002202230129F5
:1077700001D0052909D1047803EA9412C4F38005E5
:107780002A43C4F3C30404EB0212022901D00629E0
:107790000CD10478457804F00202C5F30016324398
:1077A000E407240F44EA551404EB0212032901D024
:1077B00007290CD14578847803EA9502C4F3801632
:1077C00032436D072D0F45EAD41404EB021204294D
:1077D00001D0082909D1807803EA101200F00103D2
:1077E0001A43C0F3430000EB0212034800EB811080
:1077F000104410F8400C70BD170C002010B58A071B
:1078000021F003040649130F21440F228C689A408B
:1078100094438C608A68984002438A6010BD0000DF
:1078200000000140F0B5CA78002502F00F03D2062F
:1078300001D58A7813430C784FF00F0E0122ECB17A
:10784000D0F800400F8802FA05F63740B74211D150
:107850004FEA850C0EFA0CF724EA070703FA0CF43A
:107860003C43CF78282F02D0482F02D002E0466157
:1078700000E006616D1C082DE4D304600C88FF2C29
:107880001ED944685FF0000606F1080702FA07F502
:107890000F882F40AF420FD14FEA860C0EFA0CF73B
:1078A000BC4303FA0CF73C43CF78282F00D1456145
:1078B000CF78482F00D10561761C082EE4D34460B0
:1078C000F0BD0246002092680A4200D001207047B5
:1078D00041617047016170470549096889B201EB50
:1078E000C000044901EB4000008980B270470000ED
:1078F000505C0040006000400449096889B201EB17
:10790000C000034931F8100080B27047505C00405D
:10791000006000401CB500201E4C0090CDF8040013
:1079200094F83900401C10F0FF0084F8390020D191
:1079300094F83810491C11F0FF0184F8381018D160
:1079400094F83710491C11F0FF0184F8371010D15A
:1079500094F83610491C11F0FF0184F8361008D154
:1079600094F83510491CC9B284F83510FF2900D3AA
:107970001CBDD4F835108DF804000091684604F061
:1079800072F80028CCD104490120087003F058FB9C
:1079900001201CBD64110020040C002070B50024DF
:1079A00005E0055D0E5D754002F8015B641C9C42BC
:1079B000F7DB70BD0A4810B50168001D0468001DA2
:1079C000006808180BD00822064900F0BFFA0549E4
:1079D00020460422BDE81040103100F0B7BA10BDB7
:1079E000E8F7FF1F360E0020FEE70000074B10B53A
:1079F0001B78002210F8011B5B1E03E010F8014BFE
:107A00006140521C9A42F9D3084610BD170E00205F
:107A100070B500254FF480122C46134608E00CB1D7
:107A200052081344104201D06D1CEDB2641CE4B244
:107A30008D4201D2152CF2D3184070BD2DE9FF4FB5
:107A400089B04FF0000B81464C48DDF858A0CDF8C6
:107A500010B0CDF814B0CDF818B0CDF81CB0416816
:107A60001C46B1F5001F04D96FF006000DB0BDE84B
:107A7000F08F434E80460A9800F0D3F80546014641
:107A8000584600F0EFF905EB0511834601EB0807B6
:107A900007F1080132782046FCF74CFF2046FFF73B
:107AA000A5FFB1783944097A884206D0D8F8042075
:107AB00002EB0B01C8F80410DDE70A983149C8F859
:107AC000040000F0D5F9BAF1010F06D0BAF1000FA9
:107AD0000DD0BAF1020F39D041E0B9F1000F02D058
:107AE000E07BC043E073E079C043E07137E0694672
:107AF000B9F1000F1BD0607BC04360736079C04355
:107B000060710020225C0A54401CC0B21028F9D3D6
:107B100001F1080200231646204604F0E1FE00238E
:107B20003246694604F1080004F0DAFE17E0607995
:107B3000C04360710020225C0A54401CC0B2082877
:107B4000F9D30022204604F041F808E0B9F1000F13
:107B500002D0A07BC043A073A079C043A0710949A3
:107B60000B980A6802604A684260098901812A46C6
:107B7000594604A800F008F8012077E7BA2F002042
:107B8000170E0020273100202DE9F74F1C4D93469A
:107B90008846686800F038F80BEB0B112F46CE19B9
:107BA000DFF860A006F108044FF0FF0907F26D1737
:107BB0000A2811DA4FEA58015A46009800F0EEF808
:107BC00020461121FCF7CFFE9AF80210314481F8CB
:107BD00008906868401C0BE020461121FCF7C3FEAA
:107BE0009AF80210314481F80890696801EB0800A6
:107BF000686003B03946BDE8F04F00F039B90000C5
:107C0000BA2F0020170E00200346002010B50246B0
:107C100001210B4200D0401C521C4900152AF8DB00
:107C200010BD00210122104203D1491C5200152928
:107C3000F9D3C1F11400704770B585B000230193EA
:107C40000293039301AC0493DD0021FA05F5C3F11F
:107C500007065B1CA555032BF6D352F8021F0391B0
:107C600051680491002103AA635C555C2B43435483
:107C7000491C0829F8D305B070BD00002DE9FF4765
:107C80000027214C90468946009701970297039759
:107C900018B110202070112102E008202070092165
:107CA00061701A4DA070002606EB061028440830BB
:107CB0001121FCF758FE761C152EF5D36F601426A3
:107CC000134822784946FCF735FE1149D8F80020C0
:107CD00011310C460A60D8F804204A60B8F8080050
:107CE0000881686800F0C4F832464FF48011684695
:107CF00000F054F868682146401C686000F0B8F84D
:107D000004B00120BDE8F087170E0020BA2F002034
:107D1000163100202DE9FF411CA50C46D5E90021B4
:107D2000D5E902350DF104080092A8E82A0001689F
:107D30008160064600F10807406804F10805786094
:107D400008222946384604F0E1FD00222146384643
:107D500003F03CFF08222946384604F0D7FD1022E4
:107D60006946204604F0D2FD08222946304604F038
:107D7000CDFD00222146304603F028FF0822294687
:107D8000304604F0C3FDBDE8FF810000C0C0C0C0A4
:107D900000000000C0C0C0C0000000002DE9F74F87
:107DA00082B00E46814600F1080B2B4DDFF8ACA0E7
:107DB0004CE02B4A31464846FFF73EFF3046FFF77E
:107DC00030FF00EBD07121F00101411A00EB0010EF
:107DD00000EB050808F1100000900498CFB200EB0A
:107DE0000010411908F1080408314846FFF792FFD6
:107DF0006868FFF716FF00EBD07121F00101401A0F
:107E00006968C0B221B190F0010001D087F001078C
:107E10006FB10098D9F800200260D9F804104160D1
:107E2000DBF800102160DBF80400606005E020460C
:107E30009AF800204946FCF77DFD4846FFF7D6FD3D
:107E40009AF80220760808EB02010872002EB0D1E1
:107E500005B0BDE8F08F0000BA2F0020170E0020FB
:107E600027310020C1F114020121914008437047DD
:107E70004872020A0A72CA79C0F3074002F0E002AF
:107E80000243CA71704710B545F2555000F02AF808
:107E9000042000F01BF84FF4FA6000F01DF800F029
:107EA0000DF8BDE8104000F001B8000002494CF6A2
:107EB000CC400860704700000030004002494AF69C
:107EC000AA20086070470000003000400149486067
:107ED0007047000000300040014988607047000092
:107EE0000030004001490860704700000030004049
:107EF00010B5134C2068017A022904D0042902D05D
:107F0000062905D015E0FEF729F92068007A11E06E
:107F10004178052909D10178490606D1C07802F0D7
:107F2000BDF908480068006A804707480068806813
:107F30008047082021680872BDE8104001F0D6BAD9
:107F4000441000204C10002048100020F0B5002301
:107F50000A24302537261F4611E000BFB4EB107FFE
:107F600002D905EB107C01E006EB107C01F813C090
:107F700001EB430C00015B1C8CF80170DBB29342F7
:107F8000ECD3F0BD2DE9FF4100243F4A0094019459
:107F9000029403941168062806D10B7803F07F033E
:107FA000012B01D14B7933B190460A7802F07F0260
:107FB000212A0AD066E08878222802D0212802D01F
:107FC00060E0324A09E0324A07E0032804D0092879
:107FD0000CD0012810D055E02E4AEAB38A614C82B9
:107FE00000209047002004B0BDE8F0812A48886155
:107FF0004C8252200882F5E7284F294E3878AB286A
:1080000011D0082202A9802002F0A0FF002002F077
:10801000F3F93068C0F301100228FAD1D8F8000053
:1080200008210182DEE73068C0F301100228FAD18E
:108030001D4D1C480822297800EBC1000168009101
:10804000406801906946802002F080FF002002F025
:10805000D3F92878401C00E014E0C0B228703168E1
:10806000C1F301110229FAD110490A789042D0D106
:108070002C70DD20087080210A48FCF774FCFF207A
:108080003870C6E70220AEE744100020F1800008F7
:10809000C9800008D5800008A1910008940F002035
:1080A000005C004011220020960F0020950F002058
:1080B000014902F0D7BB000078100020014902F00E
:1080C000D1BB000070100020014902F0CBBB0000C2
:1080D0008810002008B1044870470449012009684D
:1080E0000882002070470000980F002044100020F4
:1080F000014902F0B7BB0000801000200549096863
:10810000C978042901D900207047034A02EBC10154
:1081100002F0A8BB44100020E410002009B9002898
:1081200000D002207047000008490968097801F072
:108130007F01212903D10B2803D00A2803D0022074
:10814000704700F097B800207047000044100020EE
:10815000224810B5006800218172C1722049C97996
:108160004172002002F092F84FF40071002002F0FA
:1081700053F91021002002F027F91821002002F005
:10818000ADF85821002002F001F90020FDF7E8FDCC
:10819000144890F82C10002002F0B0F8002002F0F3
:1081A000E5F84FF4C061012002F036F94FF4807118
:1081B000012002F0EBF80821012002F0F7F800217D
:1081C000012002F0BBF82021012002F0FDF8002080
:1081D00002F064F804490120086010BD441000203A
:1081E00052E60008101100203410002070B5174C22
:1081F00005462068C0F301100228FAD10120FFF7DC
:108200007BFB01460822284602F0DCFE30210120DB
:1082100002F0DAF8012002F0EFF800202860686030
:108220002068C0F301100228FAD10120FFF764FB97
:1082300001460822284602F0C5FE012002F0DCF8C3
:108240003021012002F0C0F8002070BD045C004025
:108250000348807A002802D0024905200860704750
:10826000C822002034100020014904200860704713
:1082700034100020034804490068C07808600020DA
:108280007047000044100020980F0020704770478E
:1082900010B5302205490648FCF74CFB034924225F
:1082A000BDE8104030310348FCF744BB901000207B
:1082B000101100204011002010B5FFF77BFB09488A
:1082C00000240068847201F033F90748046007490C
:1082D0004FF4164008800449091F086004480460F0
:1082E00010BD000044100020445C004050100020ED
:1082F000341000200448817A044809B1052100E0C7
:108300000121016070470000C822002034100020C5
:108310002DE9F04FCBB04FF4807102A8FCF723FB9E
:1083200000244FF48061F748FCF71DFBDFF8D8A369
:1083300050469AF86E1069B1891E80F86E100021BF
:1083400004E0421852784254491C89B290F86E20D9
:108350008A42F6D8DFF8B483404698F86E1069B1C7
:10836000891E80F86E10002104E0421852784254B1
:10837000491C89B290F86E208A42F6D8DFF89093B3
:10838000484699F86E1081B1891ECAB280F86E20F5
:10839000002104E043185B784354491C89B290F8EB
:1083A0006E308B42F6D889F86E203C21D948FCF714
:1083B000DAFAD949487B342803D191F89A00302859
:1083C0007ED0D548DFF83CB3007B012803D0D24DE6
:1083D000002876D0EFE2D0480024C07B32289AF8FB
:1083E0006E00A0F101007AD0FCF7F3FAE71E3A46DE
:1083F000FCF7D8FA03F052FBFCF709FBC5B298F87A
:108400006E00401EFCF7E5FA3A46FCF7CBFA03F0A3
:1084100045FBFCF7FCFAC6B299F86E00401EFCF76B
:10842000D8FA3A46FCF7BEFA03F038FBFCF7EFFA4D
:10843000C7B245EA06003843CCD0B34890F86E0086
:1084400068B1B64801F0CEFEAF48014690F86E2004
:10845000B24801F0DFFEAF49B04801F0B1F9AD48D4
:1084600098F86E101430C246429061B1AB4801F0EA
:10847000B9FE9AF86E20A549A84801F0CBFEA7489E
:10848000429901F09DF9A34899F86E102830C8462A
:10849000439061B1A14801F0A5FE98F86E209C4977
:1084A0009E4801F0B7FE9D48439901F089F94FF4C9
:1084B00080619448FCF757FA92480221017002E06B
:1084C000FDE3FDE30BE04FF0000B80F803B08E48B6
:1084D00090F86E90B9F1000F06D03F2005E0FCF750
:1084E00078FA6FF0030782E73E209AF86E300BB1FE
:1084F0003F2100E03D2198F86E2012B14FF03F0C73
:1085000001E04FF03B0C0840DFF8F88100EA0C0076
:10851000B9F1000F88F8040001D088F805900BB17C
:1085200088F806300AB188F807207B480DF1080A60
:1085300090F88E100DF109000090302903D0764894
:10854000312975D018E20824B9F1000F51D061012A
:108550005046FCF708FA4A466B4902A8FCF7EAF9CC
:10856000AC2001906C4890F8A000401C25E000BFB2
:108570001AF809005E2805D03F281CD00198AF28C2
:1085800014D018E00198AC28F8D1AF200190A9F1DF
:108590000100C1B260489F3082784378891A02781E
:1085A0000098C91A1844FCF7D7F904E05A4890F823
:1085B0009F200AF8092009F1010000F0FF09524844
:1085C00090F86E004845D3D89DF80900422804D1A0
:1085D000514890F89F008DF80900DFF82C9108EBC6
:1085E000040002A999F86E20FCF7A4F999F86E002E
:1085F0000444464890F86E90B9F1000F50D04FF403
:10860000807102A8FCF7AFF94A46404902A8FCF77E
:1086100091F9414890F8A000401C25E01AF8091093
:108620003D2906D03F291DD00199AF2915D019E069
:108630003EE00199DF29F7D1AF200190A9F10100B7
:10864000C1B235489F3082784378891A0278009801
:10865000C91A1844FCF780F904E02F4991F89F20CB
:108660000AF8092009F1010000F0FF09274890F8F5
:108670006E004845D2D89DF80900422804D126480A
:1086800090F89F008DF80900DFF8809008EB040057
:1086900002A999F86E20FCF74DF999F86E00044490
:1086A000DFF86C9008EB0400494699F86E205EE113
:1086B00090F89130D90701D0072200E006229907EF
:1086C00001D5072100E005215C0701D5072400E062
:1086D00003240A40224088F80820827B4146312A40
:1086E0000ED07F24427B342A1AD0BF22144004F0DB
:1086F000DF044C7290F89020920713D5FF2212E00D
:10870000FF24EFE7401600202C3C00209B3C00207B
:108710000A3D0020941B002064110020401A002014
:10872000FF22E3E7EF2204F0F704144004F0FB0417
:108730004C7290F89DC05FEA8C7201D5FF2200E078
:10874000FD2204F0FE04144088F809400A245FEA80
:10875000CC7056D0D80754D0B9F1000F51D04FF497
:1087600080715046FCF7FFF84A46F94902A8FCF729
:10877000E1F8AC200190F74890F8A000401C24E0FC
:108780001AF809005E2805D03F281CD00198AF28B0
:1087900014D018E00198AC28F8D1EE4AAF2001902F
:1087A0009F32A9F101009178C0B2411A5078009B24
:1087B000091A12781844FCF7CFF804E0E54890F85D
:1087C0009F200AF8092009F1010000F0FF09E048A4
:1087D00090F86E004845D3D89DF80900422804D18E
:1087E000DC4890F89F008DF80900DFF8649308EBEF
:1087F000040002A999F86E20FCF79CF899F86E0025
:108800000444D44890F89D0080075DD5DF20019096
:10881000D04890F89100800756D5CF4890F86E90D8
:10882000B9F1000F50D04FF4807102A8FCF79BF80B
:108830004A46C94902A8FCF77DF8C64890F8A0004E
:10884000401C25E01AF809103D2905D03F291DD00C
:108850000199AF2915D019E00199DF29F8D1AF208E
:108860000190A9F10100C1B2BA489F3082788A1AFA
:108870004178531A0278009808441946FCF76CF8BE
:1088800004E0B44991F89F200AF8092009F1010099
:1088900000F0FF09B04890F86E004845D2D89DF826
:1088A0000900422804D1AB4890F89F008DF80900D8
:1088B000DFF8A49208EB040002A999F86E20FCF7F7
:1088C00039F899F86E000444A24890F89D104907C1
:1088D00052D590F8910040074ED5A04890F86E9080
:1088E000B9F1000F48D04FF4807102A8FCF73BF8B3
:1088F0004A469A4902A8FCF71DF8A1200190954824
:1089000090F8A000401C24E01AF809103D2905D079
:108910003F291CD00199AF2914D018E00199A12951
:10892000F8D1AF200190A9F10100C1B289489F3070
:1089300082784378891A02780098C91A1844FCF79B
:108940000BF804E0834991F89F200AF8092009F107
:10895000010000F0FF09814890F86E004845D3D827
:10896000DFF8F89108EB040002A999F86E20FBF7F4
:10897000E1FF99F86E000444DFF8D89199F80E00F1
:10898000312802D0302803D008E0FEF72DFC05E0A6
:108990007049102210317248FBF7CCFF99F80F0094
:1089A000302808D06E4908314491312813D0DFF8BF
:1089B000A49132287DD0FF2221466A48FBF7CCFFE4
:1089C00064484FF40C71027B90F89E00002A71D02D
:1089D000382870D0BEE35F4890F88E00312802D06E
:1089E000302879D052E125B30A4600235C49584823
:1089F00003F076FF012011E05548082200EBC90A78
:108A0000AAF10801504603F081FF50460023544963
:108A1000449A03F065FF09F1010080B28146A84243
:108A2000EAD3EA0008EB04004949FBF783FF04EBB3
:108A3000C50426B300234A494748449A03F050FF2F
:108A4000012011E04448082200EBC90AAAF10801FC
:108A5000504603F05BFF504600234149449A03F01F
:108A60003FFF09F1010080B28146B042EAD3F20033
:108A700008EB04003849FBF75DFF04EBC604002F48
:108A800029D0002336493548449A03F029FF0120B4
:108A900016E03249082201EBC90AAAF10801504642
:108AA00003F034FF504600232D49449A03F018FF89
:108AB00003E059E04CE357E30EE009F1010080B216
:108AC0008146B842E5D3FA0008EB04002349FBF7DE
:108AD00031FF04EBC704D9E0DFF8749002A84946DF
:108AE00099F86E20FBF726FF1B4899F86E1090F856
:108AF0006E2001EB0A001849FBF71CFF0023184900
:108B000002A8449A03F0ECFE4FF0010905EB060AB7
:108B100012E002A800EBC900A0F1080108220090B1
:108B200003F0F4FE00230E49449A009803F0D8FEA7
:108B300009F101001FFA80F9CA45EAD84FEACA02D2
:108B400008EB040002A9FBF7F5FE04EBCA049DE064
:108B50002C3C0020641100209B3C00200A3D00209A
:108B60002F12002040160020FC4A8021FC48FCF710
:108B700095FE99F88E00312802D030285BD085E030
:108B8000E5B14FEA051A08EB0400CDF814B1CDF8B1
:108B900018B1CDF81CB181465246F249CDF820B14A
:108BA000FBF7C8FE012145A8CDE900014846EB4B83
:108BB00052464946FCF711FA04EB0514E6B14FEAB8
:108BC000061A08EB0400CDF814B1CDF818B1CDF8B1
:108BD0001CB181465246E449CDF820B1FBF7AAFE0C
:108BE000012145A8CDE900014846DC4B52464946E3
:108BF000FCF7F3F904EB0614EFB34FEA071A08EB9E
:108C00000400CDF814B1CDF818B1CDF81CB18146EF
:108C10005246D649CDF820B1FBF78CFE012145A87C
:108C2000CDE900014846CD4B52464946FCF7D5F9FF
:108C300004EB07142AE0DFF82C9302A8494699F8C0
:108C40006E20FBF777FEC84899F86E1090F86E20FA
:108C500001EB0A00C449FBF76DFE012145A8CDE9EF
:108C6000000105EB06094FEA09108246024602A9F7
:108C7000BA4B084600E009E0FCF7AFF908EB040046
:108C8000524602A9FBF756FE04EB0914DFF8E09206
:108C900099F80D00332865D199F89000C00703D0EA
:108CA00099F88E00312803D099F88E0030280CD125
:108CB0005DB1AA49142208EB0400F43101E04DE251
:108CC000E7E0FBF737FE04F1140499F89000800701
:108CD00003D599F88E00312803D099F88E003028FA
:108CE00009D146B108EB040014224299FBF722FE99
:108CF00004F11404A4B299F8900040070CD599F837
:108D00008E00312808D13FB108EB040014224399AA
:108D1000FBF710FE1434A4B299F80E10484631291E
:108D200002D030290BD01DE008EB0401026B0A6071
:108D3000426B4A60008F0A340881A4B212E008EB4B
:108D4000040350F8422F1A6042685A600089188163
:108D50000A34A0B208F800B0401C80B208F800B095
:108D6000401C84B299F80D104846342976D1D0F8C9
:108D70003A104991D9F83E004A900023784949A811
:108D8000449A03F0ADFD08EB0400499901604A994B
:108D90004160083499F89000A4B2C00703D099F854
:108DA0008E00312803D099F88E0030280AD14DB1B9
:108DB0006A4908EB04001422F431FBF7BBFD04F10F
:108DC0001404A4B299F890004D46800703D595F895
:108DD0008E00312803D095F88E00302809D146B195
:108DE00008EB040014224299FBF7A4FD04F11404DB
:108DF000A4B295F8900040070CD595F88E00312864
:108E000008D13FB108EB040014224399FBF792FD0F
:108E10001434A4B2A87B312802D030280BD01DE036
:108E200008EB0400296B0160696B4160298F0A34EB
:108E30000181A4B212E008EB040055F8422F026051
:108E40006A6842602A8902810A34A0B208F800B038
:108E5000401C80B208F800B0401C84B2E01E88F8C4
:108E60000100000A88F802004546032221464148D5
:108E7000FCF73AFF0646E11EE81CFCF73FFFE41C46
:108E80000146A4B2281900F8036D417003218170D6
:108E900096E5002495F89E00274630280AD1002147
:108EA0008BF800108BF801108BF8021004218BF85E
:108EB000061009242E4995F898205E460BEB040015
:108EC0004C31FBF737FD95F89800DFF8A4B09AF81D
:108ED0006E1004440BF15B0BF1B3E87A302801D03B
